:020000040800F2
:10000000005000200D01000800000000000000006A
:1000100000000000000000000000000000000000E0
:1000200000000000000000000000000000000000D0
:1000300000000000000000000000000000000000C0
:1000400000000000000000000000000000000000B0
:1000500000000000000000000000000000000000A0
:100060000000000000000000000000000000000090
:100070000000000000000000000000000000000080
:100080000000000000000000000000000000000070
:100090000000000000000000000000000000000060
:1000A0000000000000000000000000000000000050
:1000B0000000000000000000000000000000000040
:1000C0000000000000000000000000000000000030
:1000D0000000000000000000000000000000000020
:1000E0000000000000000000000000000000000010
:1000F0000000000000000000000000000000000000
:0C01000000000000000000005FF808F1A3
:10010C0068462DF007018D4601B5104A104B9A42F6
:10011C000BD24FF000010D4A0E4BCB588B5001F116
:10012C0004010A440A4B9A42F5D30B4A0B4B9A42F0
:10013C0006D24FF0000342F8043B084B9A42F8D326
:10014C0000F00EF8BDE80140854670470000002025
:10015C0000000020C008000800000020080000205B
:10016C0010B500F0D1F900F0BDF90020014600F007
:10017C008FF91A4800F080F90121002000F088F96D
:10018C00174800F079F90221002000F081F9154898
:10019C0000F072F90321002000F07AF9124800F007
:1001AC006BF90421002000F073F9104800F064F999
:1001BC000521002000F06CF90D4800F05DF90621D6
:1001CC00002000F065F90B4800F056F900200721DB
:1001DC0000F05EF9014800F04FF9FEE72408000832
:1001EC003A08000850080008660800087C08000857
:1001FC0092080008A808000800BF00BF00BF00BF9D
:10020C007047C0460078704770B50D4C01214020F6
:10021C0000F000FA204600F0E9F90A4D4FF0FF33E8
:10022C0023800223A37028460E332146E37000F08E
:10023C0077F9284643F6FF3100F0EAF970BDC04665
:10024C000200002000180140012810B507D002D38D
:10025C00022808D00CE007484FF4006106E005487E
:10026C004FF4805102E003484FF4005100F0CEF9F6
:10027C0010BDC04600180140012810B507D002D3AC
:10028C00022808D00CE007484FF4006106E005484E
:10029C004FF4805102E003484FF4005100F0B4F9E0
:1002AC0010BDC0460018014070B5194C06462046DA
:1002BC0000F09CF9174D4FF0FF0323804823E370A7
:1002CC002846214600F02CF928464FF4007100F026
:1002DC009BF94FF48071284600F098F93046FFF7EF
:1002EC00B3FFFFF789FF28464FF4806100F08CF9CB
:1002FC00FFF782FF284600F083F94FF48061044633
:10030C00284600F083F93046FFF7B6FFE0B270BD27
:10031C00020000200018014070B50646244D2878D4
:10032C008009FFF7C1FF10F0800FF7D1214C204658
:10033C0000F05CF94FF0FF0323801F481023214687
:10034C00E37000F0EDF81C484FF4007100F05EF91A
:10035C00FFF752FF18484FF4807100F055F9FFF782
:10036C004BFF1548314600F04FF9F143C9B2124822
:10037C0000F04CF9FFF740FF28788009FFF764FF85
:10038C00FFF73AFF0C484FF4806100F03DF9FFF79E
:10039C0033FF09484FF4806100F038F9FFF72CFF68
:1003AC0028788009FFF768FF2B7801332B7070BD1C
:1003BC0000000020020000200018014070B5064625
:1003CC000D462846FFF770FF10F0800FF9D11B4C3B
:1003DC00204600F00BF94FF0FF0323802146102339
:1003EC001748E37000F09CF84FF44071144800F08B
:1003FC000DF9FFF701FF2846FFF726FFFFF7FCFE7C
:10040C0031460F4800F000F9F1430D48C9B200F035
:10041C00FDF8FFF7F1FE0A484FF4806100F0F4F8A4
:10042C00FFF7EAFE06484FF4806100F0EFF8FFF7A3
:10043C00E3FE2846FFF720FF70BDC04602000020F7
:10044C00001801402038052340B270B500FB03F5BD
:10045C00074BEC182046FFF7D5FEFFF75DFF054B69
:10046C000134EB189C42F5D10020FFF755FF70BD0D
:10047C00440600084906000810B5044603E040B2E3
:10048C000134FFF7DFFF20780028F8D110BDC046FB
:10049C00134B2DE9F041054688461870597000261B
:1004AC00F4B24020214648F0B807FFF787FF3846E2
:1004BC002146FFF783FF0136C0202146FFF77EFF60
:1004CC00022EEDD1AC0905F03F00214640F0400072
:1004DC00FFF774FF38462146FFF770FFBDE8F08147
:1004EC000000002070B500250020E9B2FFF7D0FF16
:1004FC0000240020FFF710FF631CDCB2802CF8D125
:10050C000135082DF0D170BD10B5FFF77DFE00242C
:10051C003F20E1B20134FFF751FF032CF8D110BD9D
:10052C0030B50446CB7803F00F0513F0100F1CBF49
:10053C008B781D430B784BB300684FF0000E4FF0D7
:10054C00010303FA0EFC0B880CEA0303634517D175
:10055C004FEA8E034FF00F0202FA03F26FEA020227
:10056C0002EA000205FA03F342EA0300CB78282BD7
:10057C0008BFC4F814C0CB78482B08BFC4F810C00F
:10058C000EF1010EBEF1080FD9D120600B88FF2BA4
:10059C002BD960684FF0000E0EF108024FF00103EA
:1005AC0003FA02FC0B880CEA0303634517D14FEAEC
:1005BC008E034FF00F0202FA03F26FEA020202EA14
:1005CC00000205FA03F342EA0300CB78282B08BF9C
:1005DC00C4F814C0CB78482B08BFC4F810C00EF177
:1005EC00010EBEF1080FD7D1606030BD4FF0FF3364
:1005FC0003804FF00203837003F10203C370704752
:10060C00806880B27047C046016170474161704795
:10061C00C160704729B1074A936940EA03039361AB
:10062C0006E004498A696FEA000303EA02038B615E
:10063C007047000000100240000000000000005F46
:10064C0000000007000700147F147F14242A7F2A5F
:10065C00122313086462364955225000050300002A
:10066C00001C2241000041221C00082A1C2A0808F8
:10067C00083E080800503000000808080808003040
:10068C0030000020100804023E5149453E00427FD4
:10069C00400042615149462141454B311814127FAB
:1006AC001027454545393C4A494930017109050334
:1006BC003649494936064949291E0036360000009C
:1006CC00563600000008142241141414141441224C
:1006DC001408000201510906324979413E7E11117C
:1006EC00117E7F494949363E414141227F41412299
:1006FC001C7F494949417F090901013E4141513261
:10070C007F0808087F00417F41002040413F017F66
:10071C00081422417F404040407F0204027F7F0446
:10072C0008107F3E4141413E7F090909063E415177
:10073C00215E7F09192946464949493101017F014A
:10074C00013F4040403F1F2040201F7F2018207F4A
:10075C00631408146303047804036151494543008E
:10076C00007F4141020408102041417F0000040237
:10077C000102044040404040000102040020545457
:10078C0054787F48444438384444442038444448DE
:10079C007F3854545418087E090102081454543CF0
:1007AC007F0804047800447D40002040443D000054
:1007BC007F10284400417F40007C041804787C089A
:1007CC0004047838444444387C1414140808141471
:1007DC00187C7C080404084854545420043F4440BA
:1007EC00203C4040207C1C2040201C3C4030403CA5
:1007FC0044281028440C5050503C4464544C440041
:10080C000836410000007F0000004136080008084F
:10081C002A1C08081C2A08082B2D2D2D2D2D2D2DBA
:10082C002D2D2D2D2D2D2D2D2D2D2D2D2B007C20D9
:10083C0020202020556E6976657273616C20202013
:10084C0020207C007C2020204B5330313038206C11
:10085C0069627261727920207C007C20202020202B
:10086C0020202020202020202020202020207C0040
:10087C007C2020656E2E7261647A696F2E647870AC
:10088C002E706C207C007C202053544D333220433E
:10089C006F727465782D4D3320207C007C20206D88
:1008AC006963726F636F6E74726F6C6C65727320B8
:0408BC007C000000BC
:040000050800010CE2
:00000001FF
